S0190000426174746572796D616E6167656D656E742E7372656313
S11300000C9434000C9451000C9451000C94510045
S11300100C9451000C9451000C9451000C94510018
S11300200C9451000C9451000C9451000C946900F0
S11300300C9451000C9451000C9451000C945100F8
S11300400C9451000C9451000C9451000C945100E8
S11300500C9451000C9451000C9451000C945100D8
S11300600C9451000C94510011241FBECFEFD8E022
S1130070DEBFCDBF11E0A0E0B1E0E6ECF9E002C0E4
S113008005900D92A839B107D9F721E0A8E9B1E0AC
S113009001C01D92AF3AB207E1F70E941C020C9412
S11300A0E1040C94000010928000E1E8F0E088E0A4
S11300B0808380818460808382E19AE790938900C1
S11300C080938800EFE6F0E08081826080837894FA
S11300D008951F920F920FB60F9211248F939F933E
S11300E08091A0019091A10101969093A101809328
S11300F0A0019F918F910F900FBE0F901F901895A4
S113010081EE84B980E885B917B818B88FEF8AB939
S11301101BB8089580E480937C0010927B00EAE78A
S1130120F0E086E080838081806880830895ECE736
S1130130F0E09081987F90839081892B8083EAE717
S1130140F0E0808180648083808186FDFDCFEAE7D2
S1130150F0E0808180648083808186FDFDCF809182
S11301607800909179000895CF92DF92EF92FF92F8
S11301700F931F93CF93DF9380E090E00E9497004A
S1130180C3EAD1E09983888381E090E00E949700DC
S11301908C0180E090E00E949700000F111F081B63
S11301A0190B1B830A8382E090E00E9497007C0174
S11301B081E090E00E9497008C01B701FF0C880B4E
S11301C0990B0E94A8032CE53FE842E450E40E9406
S11301D034046B017C01B801110F880B990B0E9448
S11301E0A80325E83BEE41E050E40E9434049B015F
S11301F0AC01C701B6010E9403030E9470037D8312
S11302006C8383E090E00E9497007C0182E090E0A0
S11302100E9497008C01B701FF0C880B990B0E9478
S1130220A80327ED33EA40E850E40E9434046B014C
S11302307C01B801110F880B990B0E94A8032CE5CF
S11302403FE842E450E40E9434049B01AC01C7013E
S1130250B6010E9403030E9470037F836E8384E0CF
S113026090E00E9497007C0183E090E00E94970058
S11302708C01B701FF0C880B990B0E94A80322E59F
S113028038EB4EE950E40E9434046B017C01B80160
S1130290110F880B990B0E94A80327ED33EA40E85D
S11302A050E40E9434049B01AC01C701B6010E94D2
S11302B003030E9470037987688785E090E00E94B9
S11302C097007C0184E090E00E9497008C01B701C4
S11302D0FF0C880B990B0E94A8032DEC3CEC44EC1A
S11302E050E40E9434046B017C01B801110F880BA7
S11302F0990B0E94A80322E538EB4EE950E40E94D2
S113030034049B01AC01C701B6010E9403030E949F
S113031070037B876A8786E090E00E949700909341
S11303209B0180939A0187E090E00E94970090934C
S113033099018093980128813981A901FE016FEA0E
S113034071E081919191481759070CF4AC0182171F
S113035093070CF49C01E617F70799F750939F0154
S113036040939E0130939D0120939C012836324096
S11303701CF484E08093A20180919A0190919B01E6
S11303800B972CF485B1887F85B91092A201DF9177
S1130390CF911F910F91FF90EF90DF90CF90089530
S11303A00E9480000E9453000E948A001092A201C1
S11303B00895E0ECF0E0908195FFFDCF8093C600B6
S11303C081E090E00895EF92FF920F931F93CF93F3
S11303D0DF938C017C01C0E0D0E006C0F70181917D
S11303E07F010E94D9012196F80101900020E9F7CC
S11303F03197E01BF10BCE17DF0780F38DE00E94ED
S1130400D9018AE00E94D90181E090E0DF91CF9187
S11304101F910F91FF90EF9008951092C50083E310
S11304208093C40088E18093C10080E28093C0007F
S113043086E88093C2000895CF93DF9300D000D064
S11304401F92CDB7DEB70E94D0010E940D0200ECCE
S113045010E00F2EF4E6DF2EF02D0F2EF3EAEF2E30
S1130460F1E0FF2EF02D0E94B40085B1836085B9C0
S1130470F801808185FFFCCF80E091E00E94E301D8
S113048082E291E00E94E3018091A0019091A10198
S11304904AE050E0BE016F5F7F4F0E94A1040E94BA
S11304A0E30187E291E00E94E30127B5D29E900127
S11304B011244AE050E0BE016F5F7F4F832F932FDA
S11304C0990F990B0E94A1040E94E3018CE291E030
S11304D00E94E30180919C0190919D010E94E3019F
S11304E082E391E00E94E30180919E0190919F013B
S11304F00E94E30188E391E00E94E301E091A201FC
S1130500F0E0EE0FFF1FE257FE4F808191810E94C1
S1130510E30180E491E00E94E3014AE050E0BE017F
S11305206F5F7F4FF701808191810E94A1040E9437
S1130530E3018AE491E00E94E3014AE050E0BE0155
S11305406F5F7F4FF701828193810E94A1040E9413
S1130550E30183E591E00E94E3014AE050E0BE013B
S11305606F5F7F4FF701848195810E94A1040E94EF
S1130570E3018CE591E00E94E3014AE050E0BE0112
S11305806F5F7F4FF701868197810E94A1040E94CB
S1130590E30185E691E00E94E3014AE050E0BE01F8
S11305A06F5F7F4FF701808591850E94A1040E94AF
S11305B0E3018EE691E00E94E3014AE050E0BE01CF
S11305C06F5F7F4FF701828593850E94A1040E948B
S11305D0E30187E791E00E94E301FFEF24E38CE06D
S11305E0F15020408040E1F700C0000085B18C7FCD
S11305F085B99FEFE4E3FCE09150E040F040E1F77F
S113060000C0000030CF5058BB27AA270E941B030C
S11306100C94FA030E94EC0338F00E94F30320F0D8
S113062039F49F3F19F426F40C94E9030EF4E09591
S1130630E7FB0C94E303E92F0E940B0458F3BA1769
S1130640620773078407950720F079F4A6F50C94E4
S11306502D040EF4E0950B2EBA2FA02D0B01B90139
S113066090010C01CA01A0011124FF27591B99F024
S1130670593F50F4503E68F11A16F040A22F232F30
S1130680342F4427585FF3CF469537952795A79580
S1130690F0405395C9F77EF41F16BA0B620B730B27
S11306A0840BBAF09150A1F0FF0FBB1F661F771F98
S11306B0881FC2F70EC0BA0F621F731F841F48F44D
S11306C0879577956795B795F7959E3F08F0B0CFD6
S11306D09395880F08F09927EE0F979587950895BD
S11306E00E9477036894B1110C942E0408950E941B
S11306F0130488F09F5798F0B92F9927B751B0F099
S1130700E1F0660F771F881F991F1AF0BA95C9F791
S113071014C0B13091F00E942D04B1E008950C94FE
S11307202D04672F782F8827B85F39F0B93FCCF3B1
S1130730869577956795B395D9F73EF4909580950E
S1130740709561957F4F8F4F9F4F0895E89409C02E
S113075097FB3EF490958095709561957F4F8F4FF0
S11307609F4F9923A9F0F92F96E9BB279395F69506
S1130770879577956795B795F111F8CFFAF4BB0F84
S113078011F460FF1BC06F5F7F4F8F4F9F4F16C0E8
S1130790882311F096E911C0772321F09EE8872F72
S11307A0762F05C0662371F096E8862F70E060E02E
S11307B02AF09A95660F771F881FDAF7880F9695A7
S11307C0879597F9089597F99F6780E870E060E04E
S11307D008959FEF80EC089500240A9416161706D6
S11307E018060906089500240A941216130614061E
S11307F005060895092E0394000C11F4882352F081
S1130800BB0F40F4BF2B11F460FF04C06F5F7F4F38
S11308108F4F9F4F089557FD9058440F551F59F01F
S11308205F3F71F04795880F97FB991F61F09F3FD9
S113083079F087950895121613061406551FF2CF02
S11308404695F1DF08C0161617061806991FF1CF52
S113085086957105610508940895E894BB27662779
S11308607727CB0197F908950E9447040C94FA0363
S11308700E94EC0338F00E94F30320F0952311F05A
S11308800C94E3030C94E90311240C942E040E94A9
S11308900B0470F3959FC1F3950F50E0551F629FB1
S11308A0F001729FBB27F00DB11D639FAA27F00DC5
S11308B0B11DAA1F649F6627B00DA11D661F829FEC
S11308C02227B00DA11D621F739FB00DA11D621FD1
S11308D0839FA00D611D221F749F3327A00D611DEE
S11308E0231F849F600D211D822F762F6A2F1124D0
S11308F09F5750409AF0F1F088234AF0EE0FFF1F03
S1130900BB1F661F771F881F91505040A9F79E3F59
S1130910510580F00C94E3030C942E045F3FE4F340
S1130920983ED4F3869577956795B795F795E795AF
S11309309F5FC1F7FE2B880F911D9695879597F9B8
S113094008954532510520F4423010F00C94AC0463
S1130950FB011082CB010895BB274A3031F499235F
S113096022F4BDE2909581959F4F0C94B804BB2767
S1130970FB015527AA27880F991FAA1FA41710F057
S1130980A41B83955051B9F7A05DAA3308F0A95D63
S1130990A193009779F7B111B1931192CB010C9403
S11309A0D104DC01FC01672F71917723E1F73297C1
S11309B004C07C916D9370836291AE17BF07C8F336
S10909C00895F894FFCF36
S11309C63D3D3D3D3D3D3D3D3D3D3D3D3D3D3D3D4D
S11309D63D3D3D3D3D3D3D3D3D3D3D3D3D3D3D3D3D
S11309E63D005A6569740050574D3A004D696E3A98
S11309F620004D41583A200053746174653A200032
S1130A060A5A656C6C6520313A005A656C6C65202F
S1130A16323A005A656C6C6520333A005A656C6C40
S1130A266520343A005A656C6C6520353A005A657F
S1130A366C6C6520363A000A0A004241540043436E
S1130A4643004343560042414C00534854007A0144
S10B0A567E01820186018A0180
S9030000FC
