S01300004D61676963476C6F7665322E7372656301
S113000095C00000A3C00000A1C000009FC0000074
S11300109DC000009BC0000099C0000097C0000074
S113002095C0000093C0000091C000008FC0000084
S11300308DC000008BC0000089C0000087C0000094
S113004085C0000083C0000081C000007FC00000A4
S11300507DC000007BC0000079C0000077C00000B4
S113006075C0000073C0000071C000006FC00000C4
S11300706DC000006BC0000069C0000067C00000D4
S113008065C0000063C0000061C000005FC00000E4
S11300905DC000005BC0000059C0000057C00000F4
S11300A055C0000053C0000051C000004FC0000004
S11300B04DC0000020404B01E221C04B000022D083
S11300C0FC8C02239900394124D9B6821B252402D1
S11300D07FA6260000000027000000002800000082
S11300E00029000000002A000000002B000000008E
S11300F02C001273052D46B480002E412008048183
S113010020CFF7FEFFFF207E213F2201230324FF9F
S1130110250A260727072800290037003C3F3D050C
S11301202A344310100130344310100111241FBE2F
S1130130CFEFD8E0DEBFCDBF21E0A0E0B1E001C049
S11301401D92A032B207E1F703D167C259CFCF9312
S1130150C62F7298BED08C2FBCD0729ACF910895BE
S113016063E580E5F4DF729884E2B3D08FEDB1D01B
S113017086EBAFD082E8ADD08BE1ABD0729A85E349
S11301808A95F1F70000729884E2A3D089EDA1D09A
S113019086EB9FD082E89DD08BE19BD0729A63E579
S11301A080E5D5CF0895729894D080E092D0729A69
S11301B00895EF92FF920F93CF9387E0F4DF8823A3
S11301C00CF433C063E580E5C2DF2FC072980CE005
S11301D0C11105E085917F017CD0F7010A95D1F723
S11301E0729AC15098F763E580E5B1DF61E08DE371
S11301F0AEDF8DE1D8DF811103C063E780E5A7DFBF
S1130200CDE0F701859165917F01A1DFC150C9F768
S1130210C2E0729806E0F70185917F015AD00A95F1
S1130220D1F7729AC150A9F704C0CEE0E4EBF0E034
S1130230CDCFCF910F91FF90EF900895EF92FF9261
S11302400F931F93CF93DF937B01142F729841D0A8
S1130250112369F0E7011150012F10E00F5F1F4FC8
S11302600E0D1F1D899135D0C017D107D9F7729A89
S1130270DF91CF911F910F91FF90EF900895CF934D
S1130280DF9387E090DFC82F63E580E560DF87E0D8
S11302908ADFD82F63E580E55ADFCD2781E0C038B7
S11302A009F080E0DF91CF910895739860E787E2C9
S11302B04EDF80E078DF682F6E7F80E248DF60E009
S11302C081EE45DF739A0895259A239A24982C9AEF
S11302D0089598E0882314F42B9A01C02B9800C049
S11302E000C02D9A00C000C0880F1C99816000C016
S11302F000C02D9800C000C0915061F7089580E4BB
S113030080937C00EAE7F0E084E080838081806869
S11303108083808180648083808186FDFDCF80918D
S11303207800909179000895ECE7F0E090818F7166
S1130330907E892B8083EAE7F0E08081806480836B
S1130340808186FDFDCF8091780090917900089599
S11303508FEF8AB9D4DF6A9A6B9A729A7398B4DF72
S11303608EDF8823E9F325DF8FE99FE00197F1F71A
S113037000C00000F5DE87EE93E00197F1F700C0BE
S1130380000093DFC0E0D1E080E0CEDFBC0180E07C
S113039090E052D020E030E040E85EE3B3D06B015F
S11303A07C0119D06883C701B6011AD06BB904C0A7
S11303B087E0F9DE84FD79DF87E1F5DE85FDF8CF9E
S11303C041E0BE0180EA3ADF8FE19EE40197F1F754
S11303D000C00000D9CF04D06894B1118DC0089535
S11303E070D088F09F5790F0B92F9927B751A0F09B
S11303F0D1F0660F771F881F991F1AF0BA95C9F7B5
S113040012C0B13081F077D0B1E0089574C0672F85
S1130410782F8827B85F39F0B93FCCF38695779564
S11304206795B395D9F73EF490958095709561954D
S11304307F4F8F4F9F4F0895E89409C097FB3EF478
S113044090958095709561957F4F8F4F9F4F99231D
S1130450A9F0F92F96E9BB279395F695879577959B
S11304606795B795F111F8CFFAF4BB0F11F460FF5B
S11304701BC06F5F7F4F8F4F9F4F16C0882311F0B3
S113048096E911C0772321F09EE8872F762F05C0C7
S1130490662371F096E8862F70E060E02AF09A9562
S11304A0660F771F881FDAF7880F9695879597F957
S11304B0089557FD9058440F551F59F05F3F71F050
S11304C04795880F97FB991F61F09F3F79F08795B7
S11304D00895121613061406551FF2CF4695F1DF40
S11304E008C0161617061806991FF1CF86957105D0
S11304F0610508940895E894BB2766277727CB0104
S113050097F908950BD078C069D028F06ED018F010
S1130510952309F05AC05FC01124EECFCADFA0F3BF
S1130520959FD1F3950F50E0551F629FF001729F84
S1130530BB27F00DB11D639FAA27F00DB11DAA1FA3
S1130540649F6627B00DA11D661F829F2227B00DF0
S1130550A11D621F739FB00DA11D621F839FA00D7B
S1130560611D221F749F3327A00D611D231F849FCB
S1130570600D211D822F762F6A2F11249F57504022
S11305808AF0E1F088234AF0EE0FFF1FBB1F661FBD
S1130590771F881F91505040A9F79E3F510570F076
S11305A014C0AACF5F3FECF3983EDCF386957795B1
S11305B06795B795F795E7959F5FC1F7FE2B880F71
S11305C0911D9695879597F9089597F99F6780E807
S11305D070E060E008959FEF80EC089500240A9491
S11305E01616170618060906089500240A9412160A
S11305F01306140605060895092E0394000C11F43D
S1130600882352F0BB0F40F4BF2B11F460FF04C0E9
S11106106F5F7F4F8F4F9F4F0895F894FFCF79
S9030000FC
