S01200004D61676963476C6F76652E7372656334
S113000059C0000072C0000070C000006EC0000043
S11300106CC000006AC0000068C0000066C0000038
S113002064C0000062C0000060C000005EC0000048
S11300305CC000005AC0000058C0000056C0000058
S113004054C0000052C0000050C000004EC0000068
S11300504CC000004AC0000048C0000046C0000078
S113006044C0000042C0000040C000003EC0000088
S11300703CC000003AC0000038C0000036C0000098
S113008034C0000032C0000030C000002EC00000A8
S11300902CC000002AC0000028C0000026C00000B8
S11300A024C0000022C0000020C000001EC00000C8
S11300B01CC0000011241FBECFEFD8E0DEBFCDBFAF
S11300C011E0A0E0B1E0ECE6F2E002C005900D9290
S11300D0A433B107D9F721E0A4E3B1E001C01D9234
S11300E0A433B207E1F7B7D0BFC08ACF72988FEFBD
S11300F0A9D0729A0895CF93DF931F92CDB7DEB73C
S1130100729880626983A4D06981862FA1D0729A83
S11301100F90DF91CF9108950F931F93CF93DF93A7
S11301201F92CDB7DEB78B0172988062498390D05D
S11301304981642FC8018DD0729A0F90DF91CF91BD
S11301401F910F9108950F931F93CF936B9A6A9AFF
S11301507398729A2FE788E391E021508040904091
S1130160E1F700C00000EFE7F8E321E0E150F040E0
S11301702040E1F700C000008FE798E3E1E0815000
S11301809040E040E1F700C00000FFE728E381E091
S1130190F15020408040E1F700C000000BE211E084
S11301A0C0E0F80161918F018C2FA5DFCF5FC930CA
S11301B0C1F7729880E54CD083E74AD0729A6FE316
S11301C08CE199DF67E08DE196DF729880E540D09D
S11301D083E53ED0729A44E067E271E080E09CDF00
S11301E044E063E271E081E097DF44E06FE171E0B5
S11301F082E092DF44E06BE171E083E08DDF44E074
S113020067E171E084E088DF44E063E171E085E068
S113021083DF44E06FE071E08CE07EDF44E06BE07C
S113022071E08DE079DF4BE060E071E08EE074DF37
S1130230729880E50DD083E50BD0729ACF911F910F
S11302400F9108958DBD0DB407FEFDCF8EB50895B1
S1130250089508950895FEDF76DF48DF9FEF9AB989
S10F02608BB980E090E00895F894FFCF83
S113026C412008048120CFF7FEFFFF36B480000044
S113027C127305F9968ADB24060FB699003921D03E
S113028CFC8C02C04B0000404B01E20F0003030046
S107029C00177000D3
S9030000FC
