S01200004D61676963476C6F76652E7372656334
S113000033C0000041C000003FC000003DC00000FC
S11300103BC0000039C0000037C0000035C00000FC
S113002033C0000031C000002FC000002DC000000C
S11300302BC0000029C0000027C0000025C000001C
S113004023C000005EC000001FC000001DC00000EF
S11300501BC0000019C0000017C0000015C000003C
S113006013C0000011C0000011241FBECFEFD8E060
S1130070DEBFCDBF21E0A0E0B1E001C01D92A430FD
S1130080B207E1F70ED057C0BBCF089588E384B917
S11300908DE58CBD08958EBD0DB407FEFDCF8EB5E4
S11300A00895F3DFF3DF80E0F6DF78948FEF8AB909
S11300B02198299820E030E081E090E04FEF1999F1
S11300C04BB95FE768E371E0515060407040E1F77D
S11300D000C000008BB92115310519F4880F991F50
S11300E004C097FD0196959587958038910519F47C
S11300F021E030E0E4CF8130910509F720E030E0E1
S1130100DECF1F920F920FB60F9211248F939F93FD
S11301108DB5803849F48EB58093030181E090E079
S113012090930101809300019F918F910F900FBED6
S10D01300F901F901895F894FFCF6C
S9030000FC
